{
  "contractName": "Icecream",
  "abi": [
    {
      "inputs": [],
      "payable": false,
      "stateMutability": "nonpayable",
      "type": "constructor"
    },
    {
      "constant": true,
      "inputs": [
        {
          "internalType": "uint256",
          "name": "",
          "type": "uint256"
        }
      ],
      "name": "iceCreamsToSell",
      "outputs": [
        {
          "internalType": "string",
          "name": "flavor",
          "type": "string"
        },
        {
          "internalType": "uint256",
          "name": "volume",
          "type": "uint256"
        },
        {
          "internalType": "uint256",
          "name": "price",
          "type": "uint256"
        },
        {
          "internalType": "bool",
          "name": "disabled",
          "type": "bool"
        }
      ],
      "payable": false,
      "stateMutability": "view",
      "type": "function"
    },
    {
      "constant": true,
      "inputs": [],
      "name": "owner",
      "outputs": [
        {
          "internalType": "address",
          "name": "",
          "type": "address"
        }
      ],
      "payable": false,
      "stateMutability": "view",
      "type": "function"
    },
    {
      "constant": true,
      "inputs": [],
      "name": "saleCount",
      "outputs": [
        {
          "internalType": "uint256",
          "name": "",
          "type": "uint256"
        }
      ],
      "payable": false,
      "stateMutability": "view",
      "type": "function"
    },
    {
      "constant": true,
      "inputs": [
        {
          "internalType": "uint256",
          "name": "",
          "type": "uint256"
        }
      ],
      "name": "sales",
      "outputs": [
        {
          "internalType": "string",
          "name": "customerName",
          "type": "string"
        },
        {
          "internalType": "string",
          "name": "flavor",
          "type": "string"
        },
        {
          "internalType": "uint256",
          "name": "quantity",
          "type": "uint256"
        },
        {
          "internalType": "uint256",
          "name": "price",
          "type": "uint256"
        },
        {
          "internalType": "uint256",
          "name": "total",
          "type": "uint256"
        },
        {
          "internalType": "uint256",
          "name": "timestamp",
          "type": "uint256"
        }
      ],
      "payable": false,
      "stateMutability": "view",
      "type": "function"
    },
    {
      "constant": true,
      "inputs": [],
      "name": "stockCount",
      "outputs": [
        {
          "internalType": "uint256",
          "name": "",
          "type": "uint256"
        }
      ],
      "payable": false,
      "stateMutability": "view",
      "type": "function"
    },
    {
      "constant": true,
      "inputs": [
        {
          "internalType": "string",
          "name": "a",
          "type": "string"
        },
        {
          "internalType": "string",
          "name": "b",
          "type": "string"
        }
      ],
      "name": "compareFlavors",
      "outputs": [
        {
          "internalType": "bool",
          "name": "",
          "type": "bool"
        }
      ],
      "payable": false,
      "stateMutability": "pure",
      "type": "function"
    },
    {
      "constant": false,
      "inputs": [
        {
          "internalType": "string",
          "name": "_flavor",
          "type": "string"
        },
        {
          "internalType": "uint256",
          "name": "_volume",
          "type": "uint256"
        },
        {
          "internalType": "uint256",
          "name": "_price",
          "type": "uint256"
        }
      ],
      "name": "addStock",
      "outputs": [],
      "payable": false,
      "stateMutability": "nonpayable",
      "type": "function"
    },
    {
      "constant": false,
      "inputs": [
        {
          "internalType": "uint256",
          "name": "_id",
          "type": "uint256"
        },
        {
          "internalType": "uint256",
          "name": "_volume",
          "type": "uint256"
        }
      ],
      "name": "refillIceCream",
      "outputs": [],
      "payable": false,
      "stateMutability": "nonpayable",
      "type": "function"
    },
    {
      "constant": false,
      "inputs": [
        {
          "internalType": "uint256",
          "name": "_id",
          "type": "uint256"
        },
        {
          "internalType": "uint256",
          "name": "_price",
          "type": "uint256"
        }
      ],
      "name": "editPrice",
      "outputs": [],
      "payable": false,
      "stateMutability": "nonpayable",
      "type": "function"
    },
    {
      "constant": false,
      "inputs": [
        {
          "internalType": "uint256",
          "name": "_id",
          "type": "uint256"
        },
        {
          "internalType": "uint256",
          "name": "_quantity",
          "type": "uint256"
        },
        {
          "internalType": "string",
          "name": "_customerName",
          "type": "string"
        },
        {
          "internalType": "uint256",
          "name": "_price",
          "type": "uint256"
        },
        {
          "internalType": "uint256",
          "name": "_total",
          "type": "uint256"
        }
      ],
      "name": "sellIcecream",
      "outputs": [],
      "payable": false,
      "stateMutability": "nonpayable",
      "type": "function"
    },
    {
      "constant": false,
      "inputs": [
        {
          "internalType": "uint256",
          "name": "_id",
          "type": "uint256"
        }
      ],
      "name": "deleteIcecream",
      "outputs": [],
      "payable": false,
      "stateMutability": "nonpayable",
      "type": "function"
    }
  ],
  "bytecode": "0x608060405234801561001057600080fd5b50600080546001600160a01b03191633179055610e0a806100326000396000f3fe608060405234801561001057600080fd5b50600436106100a95760003560e01c80638da5cb5b116100715780638da5cb5b14610387578063a1e89aec146103ab578063b5f522f7146103b3578063c038760b146104ca578063d0e7a5cb146104ed578063da52c6ff14610510576100a9565b806315e4f672146100ae5780631e3a5758146100cd57806325b265da1461017b578063824139e4146102305780638508da5c1461036d575b600080fd5b6100cb600480360360208110156100c457600080fd5b50356105b9565b005b6100ea600480360360208110156100e357600080fd5b503561067e565b604051808060200185815260200184815260200183151515158152602001828103825286818151815260200191508051906020019080838360005b8381101561013d578181015183820152602001610125565b50505050905090810190601f16801561016a5780820380516001836020036101000a031916815260200191505b509550505050505060405180910390f35b6100cb600480360360a081101561019157600080fd5b813591602081013591810190606081016040820135600160201b8111156101b757600080fd5b8201836020820111156101c957600080fd5b803590602001918460018302840111600160201b831117156101ea57600080fd5b91908080601f0160208091040260200160405190810160405280939291908181526020018383808284376000920191909152509295505082359350505060200135610736565b6103596004803603604081101561024657600080fd5b810190602081018135600160201b81111561026057600080fd5b82018360208201111561027257600080fd5b803590602001918460018302840111600160201b8311171561029357600080fd5b91908080601f0160208091040260200160405190810160405280939291908181526020018383808284376000920191909152509295949360208101935035915050600160201b8111156102e557600080fd5b8201836020820111156102f757600080fd5b803590602001918460018302840111600160201b8311171561031857600080fd5b91908080601f016020809104026020016040519081016040528093929190818152602001838380828437600092019190915250929550610946945050505050565b604080519115158252519081900360200190f35b61037561095c565b60408051918252519081900360200190f35b61038f610962565b604080516001600160a01b039092168252519081900360200190f35b610375610971565b6103d0600480360360208110156103c957600080fd5b5035610977565b604051808060200180602001878152602001868152602001858152602001848152602001838103835289818151815260200191508051906020019080838360005b83811015610429578181015183820152602001610411565b50505050905090810190601f1680156104565780820380516001836020036101000a031916815260200191505b5083810382528851815288516020918201918a019080838360005b83811015610489578181015183820152602001610471565b50505050905090810190601f1680156104b65780820380516001836020036101000a031916815260200191505b509850505050505050505060405180910390f35b6100cb600480360360408110156104e057600080fd5b5080359060200135610ace565b6100cb6004803603604081101561050357600080fd5b5080359060200135610b8f565b6100cb6004803603606081101561052657600080fd5b810190602081018135600160201b81111561054057600080fd5b82018360208201111561055257600080fd5b803590602001918460018302840111600160201b8311171561057357600080fd5b91908080601f0160208091040260200160405190810160405280939291908181526020018383808284376000920191909152509295505082359350505060200135610c4a565b6000546001600160a01b03163314610606576040805162461bcd60e51b815260206004820152601b6024820152600080516020610db6833981519152604482015290519081900360640190fd5b6000818152600360208190526040909120015460ff161561065f576040805162461bcd60e51b815260206004820152600e60248201526d191bd95cc81b9bdd08195e1a5cdd60921b604482015290519081900360640190fd5b600090815260036020819052604090912001805460ff19166001179055565b60036020908152600091825260409182902080548351601f600260001961010060018616150201909316929092049182018490048402810184019094528084529092918391908301828280156107155780601f106106ea57610100808354040283529160200191610715565b820191906000526020600020905b8154815290600101906020018083116106f857829003601f168201915b50505050600183015460028401546003909401549293909290915060ff1684565b60008581526003602052604090206001015484111561078c576040805162461bcd60e51b815260206004820152600d60248201526c73746f636b20746f6f206c6f7760981b604482015290519081900360640190fd5b6000858152600360208190526040909120015460ff16156107e5576040805162461bcd60e51b815260206004820152600e60248201526d191bd95cc81b9bdd08195e1a5cdd60921b604482015290519081900360640190fd5b600180548101815560008681526003602090815260409182902080548351600295821615610100026000190190911694909404601f81018390048302850183019093528284526060939290918301828280156108825780601f1061085757610100808354040283529160200191610882565b820191906000526020600020905b81548152906001019060200180831161086557829003601f168201915b5050506000898152600360209081526040808320600190810180548d810391829055835160c0810185528d81528086018a90528085018f9052606081018d9052608081018c90524260a0820152925486526004855292909420815180519899509297949650909450926108f89284920190610d1a565b5060208281015180516109119260018501920190610d1a565b5060408201516002820155606082015160038201556080820151600482015560a0909101516005909101555050505050505050565b8051602091820120825192909101919091201490565b60025481565b6000546001600160a01b031681565b60015481565b60046020908152600091825260409182902080548351601f60026000196101006001861615020190931692909204918201849004840281018401909452808452909291839190830182828015610a0e5780601f106109e357610100808354040283529160200191610a0e565b820191906000526020600020905b8154815290600101906020018083116109f157829003601f168201915b505050505090806001018054600181600116156101000203166002900480601f016020809104026020016040519081016040528092919081815260200182805460018160011615610100020316600290048015610aac5780601f10610a8157610100808354040283529160200191610aac565b820191906000526020600020905b815481529060010190602001808311610a8f57829003601f168201915b5050505050908060020154908060030154908060040154908060050154905086565b6000546001600160a01b03163314610b1b576040805162461bcd60e51b815260206004820152601b6024820152600080516020610db6833981519152604482015290519081900360640190fd5b6000828152600360208190526040909120015460ff1615610b74576040805162461bcd60e51b815260206004820152600e60248201526d191bd95cc81b9bdd08195e1a5cdd60921b604482015290519081900360640190fd5b60009182526003602052604090912060010180549091019055565b6000546001600160a01b03163314610bdc576040805162461bcd60e51b815260206004820152601b6024820152600080516020610db6833981519152604482015290519081900360640190fd5b6000828152600360208190526040909120015460ff1615610c35576040805162461bcd60e51b815260206004820152600e60248201526d191bd95cc81b9bdd08195e1a5cdd60921b604482015290519081900360640190fd5b60009182526003602052604090912060020155565b6000546001600160a01b03163314610c97576040805162461bcd60e51b815260206004820152601b6024820152600080516020610db6833981519152604482015290519081900360640190fd5b60028054600101908190556040805160808101825285815260208082018690528183018590526000606083018190529384526003815291909220825180519192610ce692849290910190610d1a565b5060208201516001820155604082015160028201556060909101516003909101805460ff1916911515919091179055505050565b828054600181600116156101000203166002900490600052602060002090601f016020900481019282601f10610d5b57805160ff1916838001178555610d88565b82800160010185558215610d88579182015b82811115610d88578251825591602001919060010190610d6d565b50610d94929150610d98565b5090565b610db291905b80821115610d945760008155600101610d9e565b9056fe6f6e6c79206f776e65722063616e20706572666f726d20746869730000000000a265627a7a72315820f5bb56ae3dd9894d573682ab99c952e8ddd14d484e101f3daf176f15d23e4a1964736f6c63430005100032",
  "source": "// SPDX-License-Identifier: GPL-3.0\r\n\r\npragma solidity >0.4.1 < 0.9.0;\r\ncontract Icecream{\r\n    address public owner;\r\n    // Ice cream struct\r\n    struct IcecreamToSell{\r\n        string flavor;\r\n        uint volume;\r\n        uint price;\r\n        bool disabled;\r\n    }\r\n\r\n    // sale struct\r\n    struct Sale{\r\n        string customerName;\r\n        string flavor;\r\n        uint quantity;\r\n        uint price;\r\n        uint total;\r\n        uint timestamp;        \r\n    }\r\n\r\n    // upon deployment, the owner gets to be the same person that deployed the smart contract\r\n    constructor() public{\r\n        owner = msg.sender;\r\n    }\r\n\r\n    // state variable to track the salecount\r\n    uint public saleCount;\r\n    // state variable to track the stock count\r\n    uint public stockCount;\r\n    // mapping storage to store the icecreams to sell\r\n    mapping(uint => IcecreamToSell) public iceCreamsToSell;\r\n    // mapping storage to track every icecream that have been sold\r\n    mapping(uint => Sale) public sales;\r\n\r\n\r\n    // a modifier function thats restricts a method to be called by only the contract owner\r\n    modifier onlyOwner {\r\n        require(owner == msg.sender, \"only owner can perform this\");\r\n        _;\r\n    }\r\n\r\n    function compareFlavors(string memory a, string memory b) public pure returns (bool) {\r\n            return keccak256(bytes(a)) == keccak256(bytes(b));\r\n    }\r\n\r\n    // function to add stock. \r\n    //only the contract owner can call that function\r\n    function addStock(string memory _flavor, uint _volume, uint _price)public onlyOwner{\r\n        stockCount++;\r\n        iceCreamsToSell[stockCount] = IcecreamToSell(_flavor, _volume, _price, false);\r\n    }\r\n\r\n    // function to refill icecream\r\n    // only the contract owner can refill the icecream\r\n    function refillIceCream(uint _id, uint _volume)public onlyOwner{\r\n        require(iceCreamsToSell[_id].disabled == false, \"does not exist\");\r\n        iceCreamsToSell[_id].volume += _volume;\r\n    }\r\n\r\n    // this function edit's the price of a particular icecream flavor\r\n    // only the person who deployed the contract can call the method\r\n    function editPrice(uint _id, uint _price) public onlyOwner{\r\n        require(iceCreamsToSell[_id].disabled == false, \"does not exist\");\r\n        iceCreamsToSell[_id].price = _price;\r\n    }\r\n\r\n    // this function enables the user to sell the icecream\r\n    function sellIcecream(uint _id, uint _quantity, string memory _customerName, uint _price, uint _total)public{\r\n        // a require statement to ensure that the volume of \r\n        // the icecream is greater than or equal to the qunatity being bought\r\n        require(iceCreamsToSell[_id].volume >= _quantity, \"stock too low\");\r\n        /**\r\n        a require statement to make sure that no one is selling a deleted or an inexisting icrcream */\r\n        require(iceCreamsToSell[_id].disabled == false, \"does not exist\");\r\n        saleCount++;\r\n        string memory flavor = iceCreamsToSell[_id].flavor;\r\n        uint volume = iceCreamsToSell[_id].volume;\r\n        uint newVolume = volume - _quantity;\r\n        iceCreamsToSell[_id].volume = newVolume;\r\n        sales[saleCount] = Sale(_customerName, flavor, _quantity, _price, _total, block.timestamp);\r\n    }\r\n\r\n    // to achieve the goal of immutability on the blockchain,\r\n    // instead of deleting ,we just render the product as disabled...\r\n    function deleteIcecream(uint _id)public onlyOwner{\r\n        require(iceCreamsToSell[_id].disabled == false, \"does not exist\");\r\n        iceCreamsToSell[_id].disabled = true;\r\n    }\r\n\r\n}\r\n",
  "sourcePath": "C:\\Users\\Felabs\\Desktop\\celo-icecream-vending\\celo\\contracts\\icecream.sol",
  "compiler": {
    "name": "solc",
    "version": "0.5.16+commit.9c3226ce.Emscripten.clang"
  },
  "schemaVersion": "3.4.13",
  "updatedAt": "2023-06-22T07:40:42.562Z",
  "networkType": "ethereum",
  "devdoc": {
    "methods": {}
  },
  "userdoc": {
    "methods": {}
  }
}