{
  "contractName": "Icecream",
  "abi": [
    {
      "inputs": [],
      "payable": false,
      "stateMutability": "nonpayable",
      "type": "constructor"
    },
    {
      "constant": true,
      "inputs": [
        {
          "internalType": "uint256",
          "name": "",
          "type": "uint256"
        }
      ],
      "name": "iceCreamsToSell",
      "outputs": [
        {
          "internalType": "string",
          "name": "flavor",
          "type": "string"
        },
        {
          "internalType": "uint256",
          "name": "volume",
          "type": "uint256"
        },
        {
          "internalType": "uint256",
          "name": "price",
          "type": "uint256"
        },
        {
          "internalType": "bool",
          "name": "disabled",
          "type": "bool"
        }
      ],
      "payable": false,
      "stateMutability": "view",
      "type": "function"
    },
    {
      "constant": true,
      "inputs": [],
      "name": "saleCount",
      "outputs": [
        {
          "internalType": "uint256",
          "name": "",
          "type": "uint256"
        }
      ],
      "payable": false,
      "stateMutability": "view",
      "type": "function"
    },
    {
      "constant": true,
      "inputs": [
        {
          "internalType": "uint256",
          "name": "",
          "type": "uint256"
        }
      ],
      "name": "sales",
      "outputs": [
        {
          "internalType": "string",
          "name": "customerName",
          "type": "string"
        },
        {
          "internalType": "string",
          "name": "flavor",
          "type": "string"
        },
        {
          "internalType": "uint256",
          "name": "quantity",
          "type": "uint256"
        },
        {
          "internalType": "uint256",
          "name": "price",
          "type": "uint256"
        },
        {
          "internalType": "uint256",
          "name": "total",
          "type": "uint256"
        },
        {
          "internalType": "uint256",
          "name": "timestamp",
          "type": "uint256"
        }
      ],
      "payable": false,
      "stateMutability": "view",
      "type": "function"
    },
    {
      "constant": true,
      "inputs": [],
      "name": "stockCount",
      "outputs": [
        {
          "internalType": "uint256",
          "name": "",
          "type": "uint256"
        }
      ],
      "payable": false,
      "stateMutability": "view",
      "type": "function"
    },
    {
      "constant": true,
      "inputs": [
        {
          "internalType": "string",
          "name": "a",
          "type": "string"
        },
        {
          "internalType": "string",
          "name": "b",
          "type": "string"
        }
      ],
      "name": "compareFlavors",
      "outputs": [
        {
          "internalType": "bool",
          "name": "",
          "type": "bool"
        }
      ],
      "payable": false,
      "stateMutability": "pure",
      "type": "function"
    },
    {
      "constant": false,
      "inputs": [
        {
          "internalType": "string",
          "name": "_flavor",
          "type": "string"
        },
        {
          "internalType": "uint256",
          "name": "_volume",
          "type": "uint256"
        },
        {
          "internalType": "uint256",
          "name": "_price",
          "type": "uint256"
        }
      ],
      "name": "addStock",
      "outputs": [],
      "payable": false,
      "stateMutability": "nonpayable",
      "type": "function"
    },
    {
      "constant": false,
      "inputs": [
        {
          "internalType": "uint256",
          "name": "_id",
          "type": "uint256"
        },
        {
          "internalType": "uint256",
          "name": "_volume",
          "type": "uint256"
        }
      ],
      "name": "refillIceCream",
      "outputs": [],
      "payable": false,
      "stateMutability": "nonpayable",
      "type": "function"
    },
    {
      "constant": false,
      "inputs": [
        {
          "internalType": "uint256",
          "name": "_id",
          "type": "uint256"
        },
        {
          "internalType": "uint256",
          "name": "_price",
          "type": "uint256"
        }
      ],
      "name": "editPrice",
      "outputs": [],
      "payable": false,
      "stateMutability": "nonpayable",
      "type": "function"
    },
    {
      "constant": false,
      "inputs": [
        {
          "internalType": "uint256",
          "name": "_id",
          "type": "uint256"
        },
        {
          "internalType": "uint256",
          "name": "_quantity",
          "type": "uint256"
        },
        {
          "internalType": "string",
          "name": "_customerName",
          "type": "string"
        },
        {
          "internalType": "uint256",
          "name": "_price",
          "type": "uint256"
        },
        {
          "internalType": "uint256",
          "name": "_total",
          "type": "uint256"
        }
      ],
      "name": "sellIcecream",
      "outputs": [],
      "payable": false,
      "stateMutability": "nonpayable",
      "type": "function"
    },
    {
      "constant": false,
      "inputs": [
        {
          "internalType": "uint256",
          "name": "_id",
          "type": "uint256"
        }
      ],
      "name": "deleteIcecream",
      "outputs": [],
      "payable": false,
      "stateMutability": "nonpayable",
      "type": "function"
    }
  ],
  "bytecode": "0x608060405234801561001057600080fd5b50600080546001600160a01b03191633179055610c67806100326000396000f3fe608060405234801561001057600080fd5b506004361061009e5760003560e01c8063a1e89aec11610066578063a1e89aec1461037c578063b5f522f714610384578063c038760b1461049b578063d0e7a5cb146104be578063da52c6ff146104e15761009e565b806315e4f672146100a35780631e3a5758146100c257806325b265da14610170578063824139e4146102255780638508da5c14610362575b600080fd5b6100c0600480360360208110156100b957600080fd5b503561058a565b005b6100df600480360360208110156100d857600080fd5b50356105f6565b604051808060200185815260200184815260200183151515158152602001828103825286818151815260200191508051906020019080838360005b8381101561013257818101518382015260200161011a565b50505050905090810190601f16801561015f5780820380516001836020036101000a031916815260200191505b509550505050505060405180910390f35b6100c0600480360360a081101561018657600080fd5b813591602081013591810190606081016040820135600160201b8111156101ac57600080fd5b8201836020820111156101be57600080fd5b803590602001918460018302840111600160201b831117156101df57600080fd5b91908080601f01602080910402602001604051908101604052809392919081815260200183838082843760009201919091525092955050823593505050602001356106ae565b61034e6004803603604081101561023b57600080fd5b810190602081018135600160201b81111561025557600080fd5b82018360208201111561026757600080fd5b803590602001918460018302840111600160201b8311171561028857600080fd5b91908080601f0160208091040260200160405190810160405280939291908181526020018383808284376000920191909152509295949360208101935035915050600160201b8111156102da57600080fd5b8201836020820111156102ec57600080fd5b803590602001918460018302840111600160201b8311171561030d57600080fd5b91908080601f016020809104026020016040519081016040528093929190818152602001838380828437600092019190915250929550610864945050505050565b604080519115158252519081900360200190f35b61036a61087a565b60408051918252519081900360200190f35b61036a610880565b6103a16004803603602081101561039a57600080fd5b5035610886565b604051808060200180602001878152602001868152602001858152602001848152602001838103835289818151815260200191508051906020019080838360005b838110156103fa5781810151838201526020016103e2565b50505050905090810190601f1680156104275780820380516001836020036101000a031916815260200191505b5083810382528851815288516020918201918a019080838360005b8381101561045a578181015183820152602001610442565b50505050905090810190601f1680156104875780820380516001836020036101000a031916815260200191505b509850505050505050505060405180910390f35b6100c0600480360360408110156104b157600080fd5b50803590602001356109dd565b6100c0600480360360408110156104d457600080fd5b5080359060200135610a45565b6100c0600480360360608110156104f757600080fd5b810190602081018135600160201b81111561051157600080fd5b82018360208201111561052357600080fd5b803590602001918460018302840111600160201b8311171561054457600080fd5b91908080601f0160208091040260200160405190810160405280939291908181526020018383808284376000920191909152509295505082359350505060200135610aa7565b6000546001600160a01b031633146105d7576040805162461bcd60e51b815260206004820152601b6024820152600080516020610c13833981519152604482015290519081900360640190fd5b600090815260036020819052604090912001805460ff19166001179055565b60036020908152600091825260409182902080548351601f6002600019610100600186161502019093169290920491820184900484028101840190945280845290929183919083018282801561068d5780601f106106625761010080835404028352916020019161068d565b820191906000526020600020905b81548152906001019060200180831161067057829003601f168201915b50505050600183015460028401546003909401549293909290915060ff1684565b6000858152600360205260409020600101548410610703576040805162461bcd60e51b815260206004820152600d60248201526c73746f636b20746f6f206c6f7760981b604482015290519081900360640190fd5b600180548101815560008681526003602090815260409182902080548351600295821615610100026000190190911694909404601f81018390048302850183019093528284526060939290918301828280156107a05780601f10610775576101008083540402835291602001916107a0565b820191906000526020600020905b81548152906001019060200180831161078357829003601f168201915b5050506000898152600360209081526040808320600190810180548d810391829055835160c0810185528d81528086018a90528085018f9052606081018d9052608081018c90524260a0820152925486526004855292909420815180519899509297949650909450926108169284920190610b77565b50602082810151805161082f9260018501920190610b77565b5060408201516002820155606082015160038201556080820151600482015560a0909101516005909101555050505050505050565b8051602091820120825192909101919091201490565b60025481565b60015481565b60046020908152600091825260409182902080548351601f6002600019610100600186161502019093169290920491820184900484028101840190945280845290929183919083018282801561091d5780601f106108f25761010080835404028352916020019161091d565b820191906000526020600020905b81548152906001019060200180831161090057829003601f168201915b505050505090806001018054600181600116156101000203166002900480601f0160208091040260200160405190810160405280929190818152602001828054600181600116156101000203166002900480156109bb5780601f10610990576101008083540402835291602001916109bb565b820191906000526020600020905b81548152906001019060200180831161099e57829003601f168201915b5050505050908060020154908060030154908060040154908060050154905086565b6000546001600160a01b03163314610a2a576040805162461bcd60e51b815260206004820152601b6024820152600080516020610c13833981519152604482015290519081900360640190fd5b60009182526003602052604090912060010180549091019055565b6000546001600160a01b03163314610a92576040805162461bcd60e51b815260206004820152601b6024820152600080516020610c13833981519152604482015290519081900360640190fd5b60009182526003602052604090912060020155565b6000546001600160a01b03163314610af4576040805162461bcd60e51b815260206004820152601b6024820152600080516020610c13833981519152604482015290519081900360640190fd5b60028054600101908190556040805160808101825285815260208082018690528183018590526000606083018190529384526003815291909220825180519192610b4392849290910190610b77565b5060208201516001820155604082015160028201556060909101516003909101805460ff1916911515919091179055505050565b828054600181600116156101000203166002900490600052602060002090601f016020900481019282601f10610bb857805160ff1916838001178555610be5565b82800160010185558215610be5579182015b82811115610be5578251825591602001919060010190610bca565b50610bf1929150610bf5565b5090565b610c0f91905b80821115610bf15760008155600101610bfb565b9056fe6f6e6c79206f776e65722063616e20706572666f726d20746869730000000000a265627a7a7231582025268852e2657cc2d8e45de837829aef232045a28b57f0b8fc648c634b802e1264736f6c63430005100032",
  "source": "pragma solidity >0.4.1 < 0.9.0;\r\ncontract Icecream{\r\n    address owner;\r\n    struct IcecreamToSell{\r\n        string flavor;\r\n        uint volume;\r\n        uint price;\r\n        bool disabled;\r\n    }\r\n\r\n    struct Sale{\r\n        string customerName;\r\n        string flavor;\r\n        uint quantity;\r\n        uint price;\r\n        uint total;\r\n        uint timestamp;        \r\n    }\r\n\r\n    constructor() public{\r\n        owner = msg.sender;\r\n    }\r\n\r\n    uint public saleCount;\r\n    uint public stockCount;\r\n    mapping(uint => IcecreamToSell) public iceCreamsToSell;\r\n    mapping(uint => Sale) public sales;\r\n\r\n\r\n    modifier onlyOwner {\r\n        require(owner == msg.sender, \"only owner can perform this\");\r\n        _;\r\n    }\r\n\r\n    function compareFlavors(string memory a, string memory b) public pure returns (bool) {\r\n            return keccak256(bytes(a)) == keccak256(bytes(b));\r\n    }\r\n\r\n    function addStock(string memory _flavor, uint _volume, uint _price)public onlyOwner{\r\n        stockCount++;\r\n        iceCreamsToSell[stockCount] = IcecreamToSell(_flavor, _volume, _price, false);\r\n    }\r\n\r\n    function refillIceCream(uint _id, uint _volume)public onlyOwner{\r\n        iceCreamsToSell[_id].volume += _volume;\r\n    }\r\n\r\n    function editPrice(uint _id, uint _price) public onlyOwner{\r\n        iceCreamsToSell[_id].price = _price;\r\n    }\r\n\r\n    function sellIcecream(uint _id, uint _quantity, string memory _customerName, uint _price, uint _total)public{\r\n        require(iceCreamsToSell[_id].volume > _quantity, \"stock too low\");\r\n        saleCount++;\r\n        string memory flavor = iceCreamsToSell[_id].flavor;\r\n        uint volume = iceCreamsToSell[_id].volume;\r\n        uint newVolume = volume - _quantity;\r\n        iceCreamsToSell[_id].volume = newVolume;\r\n        sales[saleCount] = Sale(_customerName, flavor, _quantity, _price, _total, block.timestamp);\r\n    }\r\n\r\n    function deleteIcecream(uint _id)public onlyOwner{\r\n        iceCreamsToSell[_id].disabled = true;\r\n    }\r\n\r\n}",
  "sourcePath": "C:\\Users\\Felabs\\Documents\\react_dapp\\celo\\contracts\\icecream.sol",
  "compiler": {
    "name": "solc",
    "version": "0.5.16+commit.9c3226ce.Emscripten.clang"
  },
  "schemaVersion": "3.4.13",
  "updatedAt": "2023-06-08T11:29:04.849Z",
  "networkType": "ethereum",
  "devdoc": {
    "methods": {}
  },
  "userdoc": {
    "methods": {}
  }
}